:020000040800F2
:10000000C8040020C1010008FD120008770700089D
:10001000671200085D03000841210008000000008D
:10002000000000000000000000000000F51D0008B6
:100030006D0400080000000019160008E51E000805
:10004000DB010008DB010008DB010008DB01000820
:10005000DB010008DB010008DB010008DB01000810
:10006000DB010008DB010008DB010008DB01000800
:10007000DB010008DB010008DB010008DB010008F0
:10008000DB010008DB010008DB010008DB010008E0
:10009000DB010008DB010008DB010008DB010008D0
:1000A000DB010008DB010008DB010008DB010008C0
:1000B000DB010008DB010008DB010008DB010008B0
:1000C000DB010008DB010008DB010008DB010008A0
:1000D000DB010008A11F0008DB010008DB010008AC
:1000E000DB010008DB010008DB010008DB01000880
:1000F000DB010008DB010008DB010008DB01000870
:10010000DB010008DB010008DB010008DB0100085F
:10011000DB010008DB010008DB010008DB0100084F
:10012000DB010008DB010008DB010008DB0100083F
:10013000DB010008DB010008DB010008DB0100082F
:10014000DB010008DB010008DB010008DB0100081F
:10015000DB010008DB010008DB010008DB0100080F
:10016000DB010008DB010008DB010008DB010008FF
:10017000DB010008DB010008DB010008DB010008EF
:10018000DB010008DB010008DB010008DB010008DF
:10019000DB010008DB010008DB010008DB010008CF
:1001A000DB010008DB010008DB010008DFF80CD0F0
:1001B00000F082F800480047E9240008C804002045
:1001C0000648804706480047FEE7FEE7FEE7FEE7F1
:1001D000FEE7FEE7FEE7FEE7FEE7FEE7311F000869
:1001E000AD01000840EA01039B0703D009E008C9FC
:1001F000121F08C0042AFAD203E011F8013B00F8EC
:10020000013B521EF9D27047D2B201E000F8012B37
:10021000491EFBD270470022F6E710B513460A4686
:1002200004461946FFF7F0FF204610BD421C10F8A7
:10023000011B0029FBD1801A704710B5002200E095
:10024000521C835C8C5CA34201D1002BF8D1D8B244
:10025000E1B2401A10BD2DE9F05F0546002092463C
:100260009B4688460646814640241BE02846414678
:100270004746224600F041F853465A46C01A91417B
:1002800010D311461846224600F028F82D1A67EBC5
:1002900001084F4622460120002100F01FF817EB0D
:1002A00000094E41201EA4F10104DFDC484631461E
:1002B0002A464346BDE8F09F064C074D06E0E0683D
:1002C00040F0010394E8070098471034AC42F6D39D
:1002D000FFF770FF7837000898370008202A04DB02
:1002E000203A00FA02F1002070479140C2F1200349
:1002F00020FA03F3194390407047202A04DB203A88
:1003000021FA02F00021704721FA02F3D040C2F135
:100310002002914008431946704700007CB5012136
:10032000080201F0E7F94FF40064009401208DF811
:10033000040000208DF8060002208DF807008DF8DB
:100340000500054D6946284600F0BCF921462846BF
:1003500000F00DFA7CBD000000200240FEE770B501
:1003600005460C46284601F085FA20EA0401284695
:10037000BDE8704001F0E6BE10B50121CC05204675
:1003800001F0C6F92046BDE81040002101F0C0B9D7
:1003900001460020024A52680A4200D001207047FC
:1003A00000B0024030B500242A4B19682A4A114097
:1003B00019601968026811431960596B21F007012F
:1003C0005963596B4268114359634168002928D029
:1003D00001292DD0022930D0032933D0C1680A0168
:1003E00001690902446924038568214315430D43CB
:1003F000996B0D439D638169D963196C6FF30D018E
:100400001964196CC26911431964818C09045A6C0E
:1004100002F040425A645A6C006A02430A435A642A
:1004200030BDC1680A02018A0904047D2406DBE7A5
:10043000C1680A02018A0904D6E7C1684A01016954
:10044000C902D1E7C1684A01016989024469E4032C
:10045000CAE7000000B00240FCE0FCFF024801686F
:1004600041F001010160704700B002407047000098
:1004700070B586B00121084601F03CF90121102039
:1004800001F062F900248DF8164001208DF8170064
:1004900002258DF815508DF81450400204901C4E22
:1004A00004A9304600F00EF98DF814506902049149
:1004B00004A9304600F006F907220A21304600F070
:1004C0003FF907220921304600F03AF94FF4E130B4
:1004D0000090ADF80440ADF80640ADF80840ADF826
:1004E0000C400C20ADF80A000A4C6946204601F089
:1004F000C1FD00F004FF012240F22551204601F029
:100500009EFD0121204601F067FD06B070BD000090
:10051000000002400010014001B502E00098401EBA
:10052000009000980028F9D108BD000001B50848E6
:10053000009901604FF0E022116941F00101116161
:1005400001680029FCD1106920F00100106108BD8C
:100550005C00002000224FF0204310280AD0B0F5A4
:10056000807F09D0B0F5805F09D0D3F8580181436E
:1005700009D107E0586EFAE7D3F88400F7E7D3F81B
:10058000A400F4E70122104670470000D0E90012F1
:1005900011438268C068521E520142EA4020014362
:1005A0000148016070470000500100A070B5046868
:1005B000A100A1F1C041D1F84011CE0BF603D0E962
:1005C00001121143D0E903231A4311434269C3695D
:1005D00011438269056A11431943426A2943114351
:1005E00031434FF02046002C3CD0D6F840416FF309
:1005F0000E042B4322431343C6F840310268920095
:10060000A2F1C042C2F84011016871B38900A1F1A2
:10061000C041D1F8481101F07043816A0A684C6802
:10062000521E641E42EA04148A68521E44EA0224DE
:100630000A8A521E44EA02421A43D6F8483103F0AD
:100640007043CC68898A641E2403491E44EA015120
:100650001943C6F8481100688000A0F1C040C0F8F6
:10066000482170BDC6F84011CEE7FFE7D6F8481123
:1006700001F07041806A02684368521E5B1E42EAC4
:1006800003138268521E43EA0223C268521E43EAE1
:100690000233028A521E43EA0243828A007E521EBD
:1006A00043EA0252401E42EA00600843C6F848018D
:1006B00070BD000002490A6842EA400008607047C5
:1006C000540100A02DE9F041002201274FF0030C56
:1006D00007FA02F50B682B40AB422CD10668530099
:1006E0000CFA03F4A64306600E79D0F800809E4011
:1006F00046EA080606600E79012E01D0022E12D1BC
:100700008668A64386604E79D0F808809E4046EA07
:10071000080686604668AE43466045688E79964016
:10072000B6B235434560C568A543C560CC799C40E9
:10073000C3681C43C460521C102AC9D3BDE8F081B1
:1007400010B54B07DB0E9A40C90800EB8100016A27
:100750000F249C40A1430162016A1143016210BD54
:100760000246002012690A4200D0012070474183EE
:10077000704701837047FEE798B000248F4D002634
:100780002E6109AF28693E54401C28610A28F9DB14
:100790004FF6FF7B4FF40069DFF82482DFF824A2D4
:1007A00003E10CA9522000F0CBFE262846D10CA86C
:1007B00000F003FE262841D19DF83000342821D0D6
:1007C00000209DF83110C6291ED0002108409DF858
:1007D000321066291AD0002108409DF83310922962
:1007E00016D00021084215D04FF47F4000F0F4FBF2
:1007F00000F03EFBC0882978484380B272A100F027
:1008000049F914E00120DCE70121DFE70121E3E7FA
:100810000121E7E74FF47F0000F0DEFB00F028FB4A
:10082000C0882978484380B26AA100F033F928785B
:10083000401CC0B228700C2800D12E709DF83000EA
:10084000342818D000209DF83110C62915D0002179
:1008500008409DF83210662911D0002108409DF80B
:10086000331092290DD00021084224D0012139559E
:10087000AC6144B109E00120E5E70121E8E701218D
:10088000ECE70121F0E70920A861A869384410F8D5
:10089000010C38B9A868012801D010B102E0AE609F
:1008A00000E0A9606E610CA968690E54401C686183
:1008B0000428F9DB00E03E55641C0A2C00D100241A
:1008C0009DF82B209DF82A309DF82D00CDE90432AB
:1008D0009DF82C10CDE906109DF829009DF82810F0
:1008E0009DF827209DF82630CDE90032CDE9021091
:1008F0009DF825309DF8242039A10EA801F04AFC6E
:100900003DA10DA8AA6801F045FCA868012801D006
:1009100068B118E04FF47F0000F05EFB00F0A8FA29
:10092000C08836A10BEA001000F0B4F80BE04FF4D9
:100930007F4000F051FB00F09BFAC08832A10BEA27
:10094000001000F0A7F8686801281AD1A8680128EB
:1009500017D181021A48801C0180A8F800908014E9
:10096000A8F8000001F0A0FD2AA001F003FCDAF8CD
:10097000140080F40060CAF814006FF07F40FFF7A5
:10098000CBFD6868022801D0A86870B94FF4806078
:10099000A8F800000A48801CA0F800908014A8F86D
:1009A0000000AAF81A9001F07FFD0CA9522000F077
:1009B000C7FD26283FF4F9AEF3E60000240000202E
:1009C000181C024000200240494420636865636BA4
:1009D00065640000556E6B6E6F77202049440000FF
:1009E000255825582558255825582558255825581F
:1009F000255825580000000025640000416C6572F0
:100A00007420204D6F6465004E6F726D616C204DD7
:100A10006F646500416C6572740A000070B58AB03D
:100A2000C0F30744C0F30725C6B2FFF7A5FC4FF497
:100A300040300090012001900494039502960F200D
:100A400005900B4880680690002007904FF4F070E6
:100A500008904FF4487009906846FFF7A3FCFFF731
:100A6000FDFC0220FFF794FC0028FAD00AB070BD0C
:100A70004000002010B4203AD3B2054A126914682D
:100A8000D2885A4304EB420210BC00F025B80000A3
:100A9000400000202DE9F04180460D4600240D4E17
:100AA0004FF4487708E021464046FFF7E3FF3069FE
:100AB0008088204484B26D1CBC4208D22A78002A67
:100AC00005D030698188081980B28842EBD2BDE830
:100AD000F0810000400000202DE9F04300254FF494
:100AE00016635843DFF88880D8F808C0D8F810702B
:100AF00038E000232EE00C26B4FBF6F6F6004FF0AB
:100B0000800909FA06F932F8156049FA03F919EA79
:100B1000060F01D10C2C08D94FF0010909FA03F98D
:100B200016EA090F0BD10C2C09D901EB41066644DA
:100B3000D8F8044034520644240CB47008E001EBA9
:100B400041066644D8F8004034520644240CB47080
:100B5000491C5B1CBC889C42CDD8BB88C3F548733C
:100B600019446D1CFB88AB42C3D8BDE8F08300007C
:100B7000400000202DE9FC5F012140F2FF1000F051
:100B8000B9FD4FF00408CDF8008002208DF8050073
:100B90008DF8040000208DF806008DF807006946E6
:100BA000AA48FFF78FFD0E220221A848FFF7C8FDD3
:100BB0004FF00809CDF800906946A448FFF782FD80
:100BC0000E220321A148FFF7BBFD4FF4807ACDF838
:100BD00000A069469D48FFF775FD0E2208219B483D
:100BE000FFF7AEFD0124009469469948FFF76AFDBE
:100BF000092200219648FFF7A3FD4FF4006BCDF8C2
:100C000000B069469348FFF75DFD0E220B21914825
:100C1000FFF796FD2003009069468E48FFF752FDCE
:100C20000E220C218B48FFF78BFD022000906946B5
:100C30008748FFF747FD092201218548FFF780FD1E
:100C40004025009569468448FFF73CFD0E220621A9
:100C50008148FFF775FD2020009069467F48FFF727
:100C600031FD0E2205217D48FFF76AFD009569469A
:100C70007A48FFF727FD0E2206217848FFF760FD2E
:100C80006003009069467148FFF71CFD0E220D219C
:100C90006E48FFF755FDA602009669466E48FFF7BD
:100CA00011FD09220A216C48FFF74AFDE00300907C
:100CB00069466648FFF706FD0E220F216348FFF7DD
:100CC0003FFD009469466648FFF7FCFC0E220021B8
:100CD0006348FFF735FD8027009769466148FFF7B5
:100CE000F1FC0E2207215F48FFF72AFDCDF80080B6
:100CF00069465B48FFF7E6FC0E2202215848FFF7E1
:100D00001FFD4FF01008CDF8008069465348FFF7EB
:100D1000D9FC0E2204215148FFF712FD2003009058
:100D200069464D48FFF7CEFC0E220C214A48FFF7DA
:100D300007FD00954C4D69462846FFF7C3FC0E227F
:100D400006212846FFF7FCFCCDF800B06946424872
:100D5000FFF7B8FC0E220B213F48FFF7F1FCCDF85E
:100D6000008069463E48FFF7ADFC0E2204213C4856
:100D7000FFF7E6FCCDF8009069463648FFF7A2FC85
:100D80000E2203213348FFF7DBFCCDF800A06946B3
:100D90002F48FFF797FC0E2208212D48FFF7D0FCC3
:100DA0004FF40079CDF8009069462948FFF78AFC96
:100DB0000E2209212648FFF7C3FC00976946264802
:100DC000FFF780FC0E2207212348FFF7B9FC0096AD
:100DD00069462348FFF776FC0E220A212048FFF7D8
:100DE000AFFCCDF8009069461D48FFF76BFC0E2262
:100DF00009211B48FFF7A4FC00961C4E69463046AB
:100E0000FFF760FC0E220A213046FFF799FCCDF86F
:100E1000008002208DF805008DF8044000208DF838
:100E200006008DF8074069462846FFF74BFC0097FF
:100E300069462846FFF746FC10212846FFF799FC33
:100E400080212846FFF795FCBDE8FC9F001C02406E
:100E5000000402400000024000180240001002405E
:100E60000020024000080240000C02400014024032
:100E700001480069704700004000002000B58FB0B5
:100E80000121880600F060FC0121C80500F032FC59
:100E9000FFF770FE00F0CAFE062207214FF4D27061
:100EA00000F0DEFC4FF4003000F0CAFC012000F03E
:100EB000D1FC3D2000F0A8FC0028FAD000200090D2
:100EC0000190029003900C900D900E90049005906C
:100ED00064200690172007904FF46170089040F24C
:100EE000F71009904FF465700A904FF4FF700B9063
:100EF000684600F0D9F8012000F0C6F80FB000BD38
:100F000030B591B0652001904FF4617002901820C7
:100F1000039040F2F710049001200590FF20069006
:100F20000790089009900A904FF480600B90072476
:100F30000C9440F663100E90C01E0F904FF4F070AA
:100F400010904FF050400D90114D01A9284600F02F
:100F50000DF910490D914FF4C0610B910C940C4C9C
:100F600001A98034204600F001F9012000F04AF97F
:100F70000121284600F0EEF80121204600F0EAF8B1
:100F8000012000F03FF9044800F00EF811B030BD28
:100F900084680140009411D054000020014A106080
:100FA000516070474000002001490861704700000F
:100FB000400000200649002804D00648886001202F
:100FC000C86070474FF0504088600020C86070478C
:100FD00040000020009411D00149086070470000D3
:100FE0004000002010B50949C968002908D0014611
:100FF000074800F0ADF8BDE81040012000F002B94C
:1010000001460348803800F0A3F8F4E740000020D0
:10101000046901402DE9FC410121882000F06AFBB0
:101020004FF48065009501218DF8041000208DF8A3
:1010300006008DF807108DF80500114F69463846F7
:10104000FFF740FB6C00009469463846FFF73AFB17
:101050006600009669463846FFF734FB0094094F56
:1010600069463846FFF72EFB054918310D800C8084
:101070000E8021463846FFF77AFBBDE8FC81000070
:10108000001C0240000C02400649002804D00868F9
:1010900040F0010008607047086820F00100086017
:1010A000704700001868014030B5264A1368264989
:1010B0000B401360038A1B04146845692C431C43CE
:1010C0001460121D13680B401360038B1B0414681B
:1010D000C5692C431C431460121D13680B40136038
:1010E000038C1B041468456A2C431C431460121DB6
:1010F00013680B401360018D09041368C46A23430D
:101100000B431360111D0A68104B1A400A60D0E9A6
:1011100000231A43D0E9023423431A430B681A43CD
:101120000A60416B0A02018E0B04064924310C68E7
:1011300004F07F440C600C68806B134304431C4331
:101140000C6030BD0868014000F800F08F88FE0F89
:1011500041617047002904D0016841F0010101603C
:101160007047016821F001010160704770B58A88FD
:101170001204436803F4704343600B6813434360F5
:101180008A891204836803F4704383608B68134375
:101190008360026922F0070202610A690261CA697A
:1011A00013020A8C120491F8244024068569002554
:1011B00085618E6922431E4316438661426922F08F
:1011C000FF0242614A694261C26940F207739A4371
:1011D000C261D1E90A231A43C261826A85620A6B3D
:1011E00082620A8F1204C36A03F0E023C3624B6B6E
:1011F0001343C362026B6FF30A020263C96B01639C
:1012000070BD00000149086070470000246801407B
:1012100010B5412826D108210846FFF7A0F83D2146
:10122000112000F08FFF8621172000F08BFF7F2117
:10123000262000F087FF1E212D2000F083FF0021D3
:101240002C2000F07FFF8D212A2000F07BFF3E2123
:101250002B2000F077FF0220FFF768F9BDE810406F
:1012600000F09EB810BDFEE710B5074C01212046E6
:1012700000F0B2FE012240F22551204600F0DFFED0
:1012800002492020086010BD0010014004E100E088
:1012900010B59AB0154C40F22551204600F0AFFE33
:1012A00060B1204600F044FFC3B20D2B09D00A2BD9
:1012B00007D00F4A0FA1104600F06CFF0EA01AB025
:1012C00010BD642101A8FEF7A6FF0948FEF7AEFF96
:1012D0000246074901A8FEF785FF0548FEF7A6FF6D
:1012E00001460348FEF797FF01A8E8E70010014018
:1012F000640000202573256300000000704708B5D6
:101300004FF4A06000F042F825208DF80000012085
:101310008DF801008DF802008DF80300684600F09A
:1013200001F808BD30B50F23C27801250178002AE5
:101330001FD0154A126802F4E062C2F5E062C2F3FF
:101340000722C2F10404D3404278A24084781C40B2
:101350001443220101F1E02181F80024007800F01B
:101360001F018D404009800000F1E020C0F80051CD
:1013700030BD01F01F0085404809800000F1E020E9
:10138000C0F8805130BD00000CED00E00249084378
:1013900002490860704700000000FA050CED00E00B
:1013A00010B5142000F066FA800705D10321BDE8CE
:1013B0001040142000F01FBD10BD70B588B0064667
:1013C000002408210846FEF7CAFF00210D2000F086
:1013D000B9FE80210E20FEF7C2FF93208DF80C008D
:1013E00020208DF80D0002A8009003AB022203A973
:1013F0000C2000F018F80546262D0DD1002103A879
:10140000425C7254425C5440491CC9B20429F7D36F
:10141000405CA04200D0BB2580210E2000F0EBFCF8
:1014200008B0284670BD2DE9FF5F8246DDF8389090
:101430000D4693464FF0BB0800260027BAF10C0F6B
:1014400005D0BAF10E0F04D11226102701E077263D
:10145000302746F08001022000F074FE8021042035
:10146000FEF77DFF0021012000F06CFE80210A20A4
:1014700000F0C1FC002404E0295D092000F062FEB8
:10148000641C5C45F8D35146012000F05BFEBAF1C4
:101490000C0F03D180210D2000F0ADFC4FF47A74C5
:1014A000042000F0E7F90546641E1CB1E80701D1ED
:1014B0003D42F5D080210D20FEF751FF3CB10620C2
:1014C00000F0D8F910F01B0F0DD04FF0BB088021B1
:1014D0000C2000F090FC0021012000F033FE04B04D
:1014E0004046BDE8F09F4FF026083540E80701D0A0
:1014F0004FF0CC08BAF10C0FE9D10A2000F0BAF98C
:1015000005460C2000F0B6F900F0070028B1691E6E
:1015100000EBC100C9F8000002E0E800C9F80000D3
:1015200005B90125122D00D91225002405E0092056
:1015300000F0A0F903990855641CAC42F7D3C6E744
:1015400030B587B005460C4608210846FEF707FF70
:1015500007210D2000F0F6FD0321142000F04BFCC4
:101560008DF8085001A8009002AB012202A90C20BE
:10157000FFF759FF262802D10199102902D0BB207C
:1015800007B030BD9DF8081021709DF809106170FA
:10159000F6E7000070B51F4D4FF4805421462846F1
:1015A000FFF7E7F80120FEF7C1FF21462846FFF7C5
:1015B000DEF80120FEF7BAFF21462846FFF7D9F8EA
:1015C0000120FEF7B3FF0F21012000F0BBFD012039
:1015D00000F050F9C006FAD40120FEF7A7FF3D2124
:1015E000112000F0AFFD1E212D2000F0ABFD0021E9
:1015F0002C2000F0A7FD8D212A2000F0A3FD3E2124
:101600002B2000F09FFDBDE870404021152000F028
:1016100099BD0000000402407047000010B500F0C2
:101620000FF84FF480510448FFF7A3F8BDE81040CD
:1016300010210248FFF79DB800040240000002405C
:101640002DE9FC410121084600F054F810200090DB
:1016500002268DF8056001258DF8045000248DF8D0
:101660000640224F69463846FFF72CF8012108460C
:1016700000F040F8202000908DF805608DF80450AF
:101680008DF8064069463846FFF71CF801210846E8
:1016900000F030F8802000908DF805608DF804503F
:1016A0008DF8064069463846FFF70CF801210846D8
:1016B00000F020F8402000908DF804408DF807409D
:1016C00069463846FEF7FEFF0121022000F012F8BD
:1016D000280300908DF805608DF804508DF80640C1
:1016E00069460348FEF7EEFFBDE8FC8100000240BA
:1016F00000040240054A002903D01168014311602B
:101700007047116881431160704700003038024013
:10171000054A002903D01168014311607047116820
:10172000814311607047000010380240054A0029CB
:1017300003D0116801431160704711688143116043
:101740007047000038380240054A002903D011686C
:1017500001431160704711688143116070470000B8
:101760004438024070B5244B196801F00C01234C39
:1017700000291ED0224E04291DD008291DD0046046
:10178000196801F0F00109091E4A545C0168E14042
:1017900041601C6804F4E054A40A145D21FA04F4C6
:1017A00084601B6803F460435B0BD25CD140C16072
:1017B00070BD0460E4E70660E2E70F4A121F11689B
:1017C000C1F38055116801F03F0135B1B6FBF1F16D
:1017D0001468C4F38814614305E0B4FBF1F11468A4
:1017E000C4F3881461431268C2F30142521C5200D0
:1017F000B1FBF2F10160C3E7083802400024F400B5
:1018000040787D0114000020024600205109012982
:101810000BD002290DD00949096802F01F020123EB
:1018200093400B4200D00120704704497439096885
:10183000F3E70249091F0968EFE700007438024026
:10184000034A116821F440310143116070470000E0
:101850008C38024001490867704700000000474289
:10186000800140EA0160024940EA02700860704766
:101870008838024070B57E2101EA400040F08004C3
:10188000084D10212846FEF772FF204600F088FA26
:1018900000F060FA044610212846FEF76AFF204651
:1018A00070BD0000000002402DE9FC5F0121FC201A
:1018B000FFF720FF02208DF804008DF805000020BE
:1018C0008DF806008DF80700012000906946D14888
:1018D000FEF7F8FE0C220021CE48FEF731FF022071
:1018E00000906946CB48FEF7EDFE0C220121C94865
:1018F000FEF726FF042000906946C648FEF7E2FE88
:101900000C220221C348FEF71BFF08200090694605
:10191000C048FEF7D7FE0C220321BE48FEF710FF99
:10192000102700976946BB48FEF7CCFE0C22042125
:10193000B848FEF705FF4FF02008CDF80080694653
:10194000B448FEF7BFFE0C220521B248FEF7F8FEB0
:101950004FF48059CDF800906946AE48FEF7B2FECC
:101960000C221146AB48FEF7EBFE4FF4005ACDF8BF
:1019700000A06946A748FEF7A5FE0C220D21A54848
:10198000FEF7DEFEBD0200956946A248FEF79AFE0C
:101990000C220E219F48FEF7D3FE6C00009469468E
:1019A0009C48FEF78FFE0C220F219A48FEF7C8FED6
:1019B0000120009069469848FEF784FE0C22002121
:1019C0009548FEF7BDFE0220009069469248FEF75A
:1019D00079FE0C2201219048FEF7B2FE009569467F
:1019E0008E48FEF76FFE0C220E218C48FEF7A8FEF3
:1019F000009469468948FEF765FE0C220F2187484E
:101A0000FEF79EFE0120009069468448FEF75AFECC
:101A10000C2200218148FEF793FE022000906946C7
:101A20007E48FEF74FFE0C2201217C48FEF788FE1F
:101A30004FF0800BCDF800B069467948FEF742FEC2
:101A40000C2207217648FEF77BFEE61100966946D8
:101A50007348FEF737FE0C2208217148FEF770FE2E
:101A6000A011009069466E48FEF72CFE0C22092159
:101A70006B48FEF765FE6011009069466848FEF706
:101A800021FE0C220A216648FEF75AFE2011009022
:101A900069466348FEF716FE0C220B216048FEF7EC
:101AA0004FFECDF8009069465D48FEF70BFE0C2214
:101AB00011465B48FEF744FECDF800A06946584841
:101AC000FEF700FE0C220D215548FEF739FE009569
:101AD00069465348FEF7F6FD0C220E215048FEF7EA
:101AE0002FFE009469464E48FEF7ECFD0C220F21B4
:101AF0004B48FEF725FE009669464848FEF7E2FD92
:101B00000C2208214548FEF71BFEA01100906946F3
:101B10004248FEF7D7FD0C2209214048FEF710FE8F
:101B20006011009069463D48FEF7CCFD0C220A2169
:101B30003A48FEF705FE402000903A4D6946284697
:101B4000FEF7C0FD0C2206212846FEF7F9FD00979E
:101B500069463148FEF7B6FD0C2204212E48FEF7F7
:101B6000EFFDCDF8008069462B48FEF7ABFD0C2257
:101B700005212948FEF7E4FD012000902A4F69461F
:101B80003846FEF79FFD0C2200213846FEF7D8FDAF
:101B90002011009069461F48FEF794FD0C220B218E
:101BA0001C48FEF7CDFD009469461B48FEF78AFDF0
:101BB0000C220F211848FEF7C3FD0096694616480F
:101BC000FEF780FD0C2208211348FEF7B9FDCDF881
:101BD00000B069462846FEF775FD0C22072128460D
:101BE000FEF7AEFD0220009069460D48FEF76AFD43
:101BF0000C2201210A48FEF7A3FD0120009069464E
:101C00000748FEF75FFD0C2200210548FEF798FD0E
:101C1000BDE8FC9F0014024000180240000C024086
:101C200000100240001C02400008024000B593B0C2
:101C3000FFF73AFE01210846FFF778FD02200190E8
:101C400007220292042103910492059006900790C6
:101C500001200890002009900A9110210B91402149
:101C60000C914FF4C0710D910E904FF400610F91E3
:101C700010908800119001A8129008A8FEF796FC19
:101C800000F002F813B000BD2DE9FF4101250095D9
:101C90000826019602950024039420210120FEF7D6
:101CA00059FC0028F9D16846FEF770FC0A2000F0C4
:101CB00041F8022000900196029503942021012012
:101CC000FEF748FC0028F9D16846FEF75FFC0320C8
:101CD0000090019604270297039420210120FEF72B
:101CE00039FC0028F9D16846FEF750FC202101207C
:101CF000FEF730FC0028F9D16846FEF747FC40F2B9
:101D00003120009701960295039020210120FEF7D3
:101D100021FC0028F9D16846FEF738FC40F26A50F1
:101D2000FEF7C8FC20210120FEF714FC0028F9D1A1
:101D3000BDE8FF8101B581B0054901984843009095
:101D400002E00098401E009000980028F9D10CBDD8
:101D5000A086010070B50025104E6006040E2021FB
:101D60003046FEF704FDC820FEF7E0FB4021304678
:101D7000FEF7F6FC012801D144F00104C820FEF76B
:101D8000D5FB20213046FEF7F4FCC820FEF7CEFB41
:101D90006D1CEDB2082DE0D3204670BD000002405E
:101DA00070B505460024124E280604D58021304621
:101DB000FEF7DFFC03E080213046FEF7D8FCC820A8
:101DC000FEF7B4FB20213046FEF7D1FCC820FEF719
:101DD000ADFB20213046FEF7CCFCC820FEF7A6FB69
:101DE0006806050E641CE4B2082CDDD370BD00004B
:101DF00000000240704770B505460C462846FFF7C4
:101E000039FD40EA04012846BDE8704000F09AB967
:101E10001CB50021019100912E4A106840F48030D9
:101E200010604FF4A043106800F400300090019857
:101E3000401C0190009810B901989842F3D11068A5
:101E4000800302D50120009000E000910098012855
:101E50003FD120484030016841F0805101601E4967
:101E6000086840F4404008601A480830036803607E
:101E7000036843F400430360036843F4A053036022
:101E8000041F164B2360136843F0807313601368BC
:101E90009B01FCD50A6842F480320A604A68D2038A
:101EA000FCD50A6842F400320A604A689203FCD505
:101EB0000B4A40F205711160016821F003010160D5
:101EC000016841F0020101600168C1F3810102294A
:101ED000FAD11CBD0038024000700040195A40077A
:101EE000003C024000F052B80E480F490068B0FBB9
:101EF000F1F0401E4FF0E021B0F1807F01D30120CE
:101F000008E04861094AF02010700020886107202D
:101F10000861002000B1FEE7086920F001000861B7
:101F2000704700000000002040420F0023ED00E059
:101F300010B51248016841F4700101601048016851
:101F400041F0010101600E4A00210832116002686F
:101F50000C4B1A400260031D0B4A1A60026822F4FF
:101F60008022026006480C300160FFF751FF0349F0
:101F70004FF000608039086010BD000088ED00E07F
:101F800000380240FFFFF6FE1030002403480168CD
:101F9000002902D00168491E016070475C000020E2
:101FA00070B5FFF775F9054608A12846FEF745F913
:101FB000074C08B90120606006A12846FEF73DF9EC
:101FC000002801D10220606070BD000031000000D7
:101FD0002400002032000000002904D0818941F44F
:101FE000005181817047818921F4005181817047BE
:101FF0000246002012880A4200D00120704770B5C6
:10200000002440F66A12C1F3421301F01F050126B5
:1020100006FA05F2012B0CD0022B0DD0838A134057
:10202000090A8E40008830400BB100B101242046DF
:1020300070BD83891340F3E7038A1340F0E710B5BE
:1020400040F66A13C1F3421301F01F040121A140BD
:10205000012B07D0022B07D014303AB102680A4393
:10206000026010BD0C30F8E71030F6E702688A43D2
:10207000026010BD7FB504460D46208A20F4405111
:10208000E88808432082A08941F20C618843A9882E
:102090002A8911436A8902431143A181A08A20F44D
:1020A0004071A8890843A0826846FFF75BFB1E4881
:1020B000844202D01D48844201D1039800E0029876
:1020C000A189090408D500EBC00101EB00102968C3
:1020D0004900B0FBF1F007E000EBC00101EB00109C
:1020E00029688900B0FBF1F06422B0FBF2F109012C
:1020F0000B096FF018056B4300EB8300A3891D04E7
:102100004FF0320307D503EBC000B0FBF2F000F054
:102110000700084306E003EB0010B0FBF2F000F00C
:102120000F00084320817FBD0010014000140140D2
:102130008088C0F308007047C1F3080181807047B0
:10214000FEE7000070B50E467E2202EA4004084D0C
:1021500010212846FEF70BFB2046FFF721FE3046F4
:10216000FFF71EFE2846BDE870401021FEF701BBB8
:10217000000002400FB4054B10B503A9044A0298B1
:1021800000F02CF810BC5DF814FB0000C52400081A
:10219000600000200FB4084B10B504A902AA0398F0
:1021A00000F01CF8044602A9002000F077F9204650
:1021B00010BC5DF814FB00009D24000802E008C874
:1021C000121F08C1002AFAD170477047002001E0B1
:1021D00001C1121F002AFBD1704700002DE9FF4FFB
:1021E0008DB09B460F460446002606E025280BD0FE
:1021F0005A460F999047641C761C20780028F5D128
:1022000011B03046BDE8F08F0025A846012298495C
:1022100000E0054314F8013F203B02FA03F00842B6
:10222000F7D120782E2817D114F8010F45F00405B6
:102230002A280ED06FF02F022078A0F13001092952
:102240000AD808EB880102EB410100EB0108641C8D
:10225000F2E757F8048B641C20786C280DD004DC5E
:102260004C2812D06A2811D104E074280DD07A28A5
:102270000CD10AE045F4001507E0617845F48015BB
:10228000814202D1641C05F58015641C2278692AFC
:1022900045D008DC002AB3D0582A69D0632A10D070
:1022A000642A08D13BE0702A67D0732A13D0752ABC
:1022B0005CD0782A5CD010465A460F999047761C1D
:1022C000D3E017F8040B8DF8000000208DF8010012
:1022D000E946012003E057F8049B4FF0FF306907FF
:1022E0004FF0000501D40AE06D1C45450DDA85422A
:1022F000FADB19F805100029F6D106E06D1C8542BD
:10230000FCDB19F805100029F8D12E4404E019F877
:10231000010B5A460F9990476D1EF8D2A5E00A208E
:102320000021CDE90801C5F3025002280DD001CFEC
:10233000C117031E71F100030DDA4FF0000CD0EB52
:102340000C006CEB01012D2308E0FF1D27F00707AF
:10235000F7E80201EDE72B0504D52B238DF8283093
:1023600001233BE0EB0739D02023F7E70A2000E008
:1023700010200021CDE9080107E01020002145F0E0
:102380000405CDE908014FF00808C5F30250022802
:102390000FD001CF00214FF0000A2B071FD5702A64
:1023A0000DD0DDE908C38CF0100C5CEA030C0CD0F6
:1023B00015E0FF1D27F00707F7E80201EBE74022D1
:1023C0008DF828204FF0010A0BE050EA010306D0F7
:1023D00030238DF828308DF8292002239A46582A78
:1023E00004D024A20DF120090B9209E026A2F9E7FE
:1023F000DDE90823FDF72FFF0B9B9B5C09F8013DEE
:1024000050EA0102F4D1ADEB0900203008906807D2
:1024100001D44FF001080899884502DDA8EB0100BE
:1024200000E000208046002506E00AA85A46405DEC
:102430000F9990476D1C761C5545F6DB04E0302063
:102440005A460F999047761CB8F10001A8F101088F
:10245000F5DC05E019F8010B5A460F999047761CF8
:102460000899481E08900029F4DC641CC5E60000A9
:10247000092801003031323334353637383961625A
:10248000636465660000000030313233343536371E
:102490003839414243444546000000000A68531C55
:1024A0000B6010707047000005490020C8604FF4B1
:1024B0000012C868401CC8609042FADB70470000F8
:1024C0002400002070B50446064DE1B22846FFF70F
:1024D00033FE80212846FFF78BFD0028F9D02046E7
:1024E00070BD000000100140FFF7FEFCFDF7C0FFCB
:1024F000FFF794F8FEF7C2FCFEF702FDFEF78AFD37
:10250000FEF7B2FEFDF70AFF1BA0FFF733FE012026
:10251000FEF7BAFD0020FEF74DFD0020FEF77EFA23
:102520000120FEF747FDFF20FEF75CFD0020FEF7CF
:1025300075FA00210846FEF731FDFF20FEF74CFD3D
:10254000FEF796FCC0884FF6FF71C0EBC00001EAB1
:1025500040000EA1FEF79EFAFFF71CF84120FEF79F
:1025600057FE10484FF480610180C114018081142E
:102570000180FEF701F9000057462D5243353232F3
:102580002054657374200D200A00000057462D5218
:102590004335323220616E74656E6E612061726502
:1025A000610000001A1C0240000000000000000052
:1025B000000000000000000000000000000000001B
:1025C000000000000000000000000000000000000B
:1025D0000000000000000000000080018001800178
:1025E00080018001800180018001800180018001E3
:1025F00080018001000000008001800100000000D7
:10260000000000000000000000000000CC00CC0032
:10261000CC00CC00CC00CC0000000000000000008A
:1026200000000000000000000000000000000000AA
:10263000000000000000000000000000000000009A
:1026400000000000600C600C600C30063006FE1FBD
:10265000FE1F300638071803FE1FFE1F180318035D
:102660008C018C018C01000000008000E003F80F59
:102670009C0E8C1C8C188C009800F801E007800ED2
:10268000801C8C188C189C18B80CF00FE00380008C
:1026900080000000000000000000000000000E1894
:1026A0001B0C110C11061106110311039B018E0165
:1026B000C038C06C60446044304430441844186CE6
:1026C0000C380000000000000000E001F0033807B3
:1026D000180618063003F001F000F8009C310E33A4
:1026E000061E061C061C063FFC73F02100000000BD
:1026F0000000000000000000000000000C000C00C2
:102700000C000C000C000C00000000000000000099
:1027100000000000000000000000000000000000B9
:102720000000000000000000000000020003800123
:10273000C000C00060006000300030003000300099
:10274000300030003000300060006000C000C00089
:102750008001000300020000000020006000C000B3
:102760008001800100030003000600060006000649
:102770000006000600060006000300038001800139
:10278000C000600020000000000000000000000009
:1027900000000000C000C000D806F807E0013003C8
:1027A00038070000000000000000000000000000EA
:1027B0000000000000000000000000000000000019
:1027C0000000000080018001800180018001FC3F49
:1027D000FC3F800180018001800180010000000039
:1027E00000000000000000000000000000000000E9
:1027F00000000000000000000000000000000000D9
:1028000000000000000000000000800180010001C5
:102810000001800000000000000000000000000037
:1028200000000000000000000000000000000000A8
:10283000E007E007000000000000000000000000CA
:102840000000000000000000000000000000000088
:102850000000000000000000000000000000000078
:1028600000000000000000000000C000C0000000E8
:1028700000000000000000000000000C000C00063A
:1028800000060006000300030003800380018001AE
:102890008001C000C000C0006000600000000000B7
:1028A00000000000000000000000E003F007380E08
:1028B000180C0C180C180C180C180C180C180C18F8
:1028C0000C180C18180C380EF007E003000000007C
:1028D0000000000000000000000000018001C001B5
:1028E000F001980188018001800180018001800150
:1028F00080018001800180018001800100000000D2
:1029000000000000000000000000E003F80F180CB9
:102910000C180C1800180018000C000600038001A9
:10292000C000600030001800FC1FFC1F0000000009
:1029300000000000000000000000E001F807180E91
:102940000C0C0C0C000C0006C003C007000C001897
:1029500000180C180C18180CF807E0030000000011
:1029600000000000000000000000000C000E000F3E
:10297000000F800DC00C600C600C300C180C0C0C9F
:10298000FC3FFC3F000C000C000C000C00000000A1
:1029900000000000000000000000F80FF80F180011
:1029A00018000C00EC03FC071C0E001C001800189B
:1029B00000180C181C0C180EF807E00300000000AB
:1029C00000000000000000000000C007F00F381CED
:1029D000181818000C00CC03EC0F3C0E1C1C0C1833
:1029E0000C180C18181C380EF007E003000000004B
:1029F00000000000000000000000FC1FFC1F000C95
:102A000000060006000380038001C001C000E00052
:102A100060006000700030003000300000000000F6
:102A200000000000000000000000E003F007380E86
:102A3000180C180C180C3806F007F007180C0C18B6
:102A40000C180C180C18380CF80FE00300000000EC
:102A500000000000000000000000E003F007380E56
:102A60001C0C0C180C180C181C1C381EF81BE01938
:102A70000018000C000C1C0EF807F001000000000C
:102A80000000000000000000000000000000000046
:102A90000000000080018001000000000000000034
:102AA0000000000000000000800180010000000024
:102AB0000000000000000000000000000000000016
:102AC0000000000080018001000000000000000004
:102AD00000000000000000008001800100010001F2
:102AE0008000000000000000000000000000000066
:102AF00000000000000000000010001C800FE00338
:102B0000F8001800F800E003800F001C001000001F
:102B100000000000000000000000000000000000B5
:102B20000000000000000000F81F0000000000008E
:102B3000F81F00000000000000000000000000007E
:102B40000000000000000000000000000000000085
:102B5000000000000000000008003800F001C0077D
:102B6000001F0018001FC007F00138000800000017
:102B700000000000000000000000E003F80F180C47
:102B80000C180C180018000C000600038001C0008F
:102B9000C000C00000000000C000C0000000000035
:102BA000000000000000000000000000E00718180E
:102BB0000420C229224A1144094409440944092233
:102BC0001113E20C024004201818E0070000000076
:102BD0000000000000000000000080038003C00629
:102BE000C006C006600C600C301830183018F83F72
:102BF000F83F1C700C600C6006C006C000000000AE
:102C000000000000000000000000FC03FC0F0C0CA2
:102C10000C180C180C180C0CFC07FC0F0C180C30C2
:102C20000C300C300C300C18FC1FFC0700000000AE
:102C300000000000000000000000C007F01F38384E
:102C40001C300C7006600600060006000600060038
:102C5000060006600C701C30F01FE007000000004A
:102C600000000000000000000000FE03FE0F060E42
:102C700006180618063006300630063006300630D4
:102C8000063006180618060EFE0FFE0300000000B0
:102C900000000000000000000000FC3FFC3F0C00B2
:102CA0000C000C000C000C00FC1FFC1F0C000C00A6
:102CB0000C000C000C000C00FC3FFC3F000000006E
:102CC00000000000000000000000F83FF83F18007E
:102CD0001800180018001800F81FF81F1800180036
:102CE0001800180018001800180018000000000054
:102CF00000000000000000000000E00FF83F3C78FA
:102D00000E6006E007C00300030003FE03FE03C0DD
:102D100007C006C00EC03CF0F83FE00F0000000006
:102D2000000000000000000000000C300C300C30EF
:102D30000C300C300C300C30FC3FFC3F0C300C30B5
:102D40000C300C300C300C300C300C30000000001B
:102D500000000000000000000000800180018001F0
:102D6000800180018001800180018001800180015B
:102D7000800180018001800180018001000000004D
:102D80000000000000000000000000060006000631
:102D90000006000600060006000600060006000603
:102DA0000006180618063807F003E00100000000CE
:102DB0000000000000000000000006300618060CAD
:102DC000060606038601C60066007600DE008E0158
:102DD00006030606060C0618063006600000000012
:102DE000000000000000000000001800180018009B
:102DF0001800180018001800180018001800180013
:102E00001800180018001800F81FF81F0000000034
:102E1000000000000000000000000EE01EF01EF0A8
:102E20001EF036D836D836D836D866CC66CC66CCC6
:102E3000C6C6C6C6C6C6C6C686C386C300000000D0
:102E4000000000000000000000000C301C303C308E
:102E50003C306C306C30CC30CC308C310C330C339B
:102E60000C360C360C3C0C3C0C380C3000000000CE
:102E700000000000000000000000E007F81F1C3800
:102E80000E70066003C003C003C003C003C003C0CC
:102E900003C006600E701C38F81FE0070000000039
:102EA00000000000000000000000FC0FFC1F0C38B8
:102EB0000C300C300C300C300C18FC1FFC070C00D4
:102EC0000C000C000C000C000C000C0000000000BA
:102ED00000000000000000000000E007F81F1C38A0
:102EE0000E70066003E003C003C003C003C003C04C
:102EF00007E006630E3F1C3CF83FE0F700C000000F
:102F000000000000000000000000FE0FFE1F063859
:102F10000630063006300638FE1FFE07060306069A
:102F2000060C061806180630063006600000000081
:102F300000000000000000000000E003F80F1C0C7F
:102F40000C180C180C001C00F803E00F001E0038D1
:102F5000063006300E301C1CF80FE00700000000A1
:102F600000000000000000000000FE7FFE7F8001E6
:102F70008001800180018001800180018001800149
:102F8000800180018001800180018001000000003B
:102F9000000000000000000000000C300C300C307D
:102FA0000C300C300C300C300C300C300C300C3041
:102FB0000C300C300C301818F81FE007000000002F
:102FC0000000000000000000000003600630063032
:102FD00006300C180C180C18180C180C380E30068B
:102FE0003006700760036003C001C00100000000EC
:102FF000000000000000000000000360C361C36126
:10300000C3616633663366336633663366336C1B7F
:103010006C1B6C1B2C1A3C1E380E380E0000000076
:10302000000000000000000000000FE00C701830ED
:103030003018700C600EC00780038003C003E006E8
:10304000700C301C18180C300E6007E000000000F7
:103050000000000000000000000003C006600C300B
:103060001C383818300C6006E007C003800180016E
:10307000800180018001800180018001000000004A
:1030800000000000000000000000FC7FFC7F0060EA
:1030900000300018000C000600038001C000600032
:1030A000300018000C000600FE7FFE7F00000000CC
:1030B00000000000000000000000E003E0036000EA
:1030C0006000600060006000600060006000600000
:1030D00060006000600060006000600060006000F0
:1030E0006000E003E00300000000300030006000FA
:1030F00060006000C000C000C000C001800180010D
:103100008001000300030003000600060000000029
:1031100000000000000000000000E003E0030003E6
:103120000003000300030003000300030003000387
:103130000003000300030003000300030003000377
:103140000003E003E003000000000000C001C00134
:1031500060036003600330063006180C180C000092
:10316000000000000000000000000000000000005F
:10317000000000000000000000000000000000004F
:10318000000000000000000000000000000000003F
:1031900000000000000000000000FFFFFFFF000033
:1031A000000000000000000000000C000C000C00FB
:1031B0000C000C000C0000000000000000000000EB
:1031C00000000000000000000000000000000000FF
:1031D00000000000000000000000000000000000EF
:1031E00000000000F003F8071C0C0C0C000FF00F9F
:1031F000F80C0C0C0C0C1C0FF80FF0180000000061
:103200000000000000000000000018001800180076
:1032100018001800D803F80F380C181818181818C8
:10322000181818181818380CF80FD80300000000E8
:10323000000000000000000000000000000000008E
:1032400000000000C003F007300E180C1800180032
:1032500018001800180C300EF007C0030000000022
:103260000000000000000000000000180018001816
:1032700000180018C01BF01F301C18181818181858
:10328000181818181818301CF01FC01B0000000078
:10329000000000000000000000000000000000002E
:1032A00000000000C003F00F300C1818F81FF81FC2
:1032B000180018003818301CF00FC007000000007C
:1032C00000000000000000000000800FC00FC000E0
:1032D000C000C000F007F007C000C000C000C00080
:1032E000C000C000C000C000C000C000000000005E
:1032F00000000000000000000000000000000000CE
:1033000000000000E00DF80F180E0C0C0C0C0C0C5B
:103310000C0C0C0C0C0C180EF80FE00D000C0C0C27
:103320001C06F807F0010000000018001800180043
:1033300018001800D807F80F381C18181818181893
:10334000181818181818181818181818000000005D
:1033500000000000000000000000C000C0000000ED
:1033600000000000C000C000C000C000C000C000DD
:10337000C000C000C000C000C000C00000000000CD
:1033800000000000000000000000C000C0000000BD
:1033900000000000C000C000C000C000C000C000AD
:1033A000C000C000C000C000C000C000C000C0001D
:1033B000C000F8007800000000000C000C000C00B9
:1033C0000C000C000C0C0C060C038C01CC006C00E7
:1033D000FC009C018C030C030C060C0C000000008C
:1033E00000000000000000000000C000C000C0009D
:1033F000C000C000C000C000C000C000C000C000CD
:10340000C000C000C000C000C000C000000000003C
:1034100000000000000000000000000000000000AC
:10342000000000007C3CFF7EC7E383C183C183C1F1
:1034300083C183C183C183C183C183C100000000F4
:10344000000000000000000000000000000000007C
:10345000000000009807F80F381C181818181818E2
:10346000181818181818181818181818000000003C
:10347000000000000000000000000000000000004C
:1034800000000000C003F00F300C181818181818AE
:10349000181818181818300CF00FC003000000009E
:1034A000000000000000000000000000000000001C
:1034B00000000000D803F80F380C18181818181856
:1034C000181818181818380CF80FD8031800180016
:1034D00018001800180000000000000000000000A4
:1034E00000000000C01BF01F301C18181818181816
:1034F000181818181818301CF01FC01B00180018D6
:103500000018001800180000000000000000000073
:1035100000000000B007F003700030003000300001
:10352000300030003000300030003000000000007B
:10353000000000000000000000000000000000008B
:1035400000000000E003F003380E180C3800F00310
:10355000C007000C180C380EF007E0030000000054
:103560000000000000000000000000008000C0001B
:10357000C000C000F007F007C000C000C000C000DD
:10358000C000C000C000C000C007800700000000ED
:10359000000000000000000000000000000000002B
:1035A00000000000181818181818181818181818FB
:1035B000181818181818381CF01FE019000000001F
:1035C00000000000000000000000000000000000FB
:1035D000000000000C18180C180C180C30063006EF
:1035E0003006600360036003C001C00100000000FA
:1035F00000000000000000000000000000000000CB
:1036000000000000C141C141C36163636363636340
:103610003636363636361C1C1C1C1C1C00000000BE
:10362000000000000000000000000000000000009A
:10363000000000001C38381C300C6006600360037A
:10364000600360036006300C381C1C38000000006A
:10365000000000000000000000000000000000006A
:10366000000000001830301830187018600C600C22
:10367000E00CC006C0068003800380038001800147
:10368000C001F00070000000000000000000000019
:1036900000000000FC1FFC1F000C0006000380015E
:1036A000C000600030001800FC1FFC1F000000007C
:1036B0000000000000000000000000038001C000C6
:1036C000C000C000C000C000C0006000600030004A
:1036D00060004000C000C000C000C000C000C000CA
:1036E00080010003000000000000800180018001D3
:1036F00080018001800180018001800180018001C2
:1037000080018001800180018001800180018001B1
:10371000800180018001000000006000C000C00145
:103720008001800180018001800100030003000608
:10373000000300018001800180018001800180017F
:10374000C000600000000000000000000000000059
:103750000000000000000000F010F81F080F00003B
:103760000000000000000000000000000000000059
:103770000000000000000000983700080000002052
:1037800064000000BC210008FC3700086400002031
:1037900064040000CC2100080095BA0A0000000073
:1037A00000000000010203040607080900000000F1
:1037B00001020304010203040607080900000000D7
:1037C00000000000000000000000000000000000F9
:1037D000000000000000000000000000FFFFFF00EC
:1037E000000000D00000000000000000A825000834
:0C37F000100018000000000000000000A5
:04000005080001AD41
:00000001FF
